{
    "_format": "hh-sol-artifact-1",
    "contractName": "TwitterContract",
    "sourceName": "contracts/TwitterContract.sol",
    "abi": [
        {
            "anonymous": false,
            "inputs": [
                {
                    "indexed": false,
                    "internalType": "address",
                    "name": "recipient",
                    "type": "address"
                },
                {
                    "indexed": false,
                    "internalType": "uint256",
                    "name": "tweetId",
                    "type": "uint256"
                }
            ],
            "name": "AddTweet",
            "type": "event"
        },
        {
            "anonymous": false,
            "inputs": [
                {
                    "indexed": false,
                    "internalType": "uint256",
                    "name": "tweetId",
                    "type": "uint256"
                },
                {
                    "indexed": false,
                    "internalType": "bool",
                    "name": "isDeleted",
                    "type": "bool"
                }
            ],
            "name": "DeleteTweet",
            "type": "event"
        },
        {
            "inputs": [
                {
                    "internalType": "string",
                    "name": "tweetText",
                    "type": "string"
                },
                {
                    "internalType": "bool",
                    "name": "isDeleted",
                    "type": "bool"
                }
            ],
            "name": "addTweet",
            "outputs": [],
            "stateMutability": "nonpayable",
            "type": "function"
        },
        {
            "inputs": [
                {
                    "internalType": "uint256",
                    "name": "tweetId",
                    "type": "uint256"
                },
                {
                    "internalType": "bool",
                    "name": "isDeleted",
                    "type": "bool"
                }
            ],
            "name": "deleteTweet",
            "outputs": [],
            "stateMutability": "nonpayable",
            "type": "function"
        },
        {
            "inputs": [],
            "name": "getAllTweets",
            "outputs": [
                {
                    "components": [
                        {
                            "internalType": "uint256",
                            "name": "tweetId",
                            "type": "uint256"
                        },
                        {
                            "internalType": "address",
                            "name": "username",
                            "type": "address"
                        },
                        {
                            "internalType": "string",
                            "name": "tweetText",
                            "type": "string"
                        },
                        {
                            "internalType": "bool",
                            "name": "isDeleted",
                            "type": "bool"
                        }
                    ],
                    "internalType": "struct TwitterContract.Tweet[]",
                    "name": "",
                    "type": "tuple[]"
                }
            ],
            "stateMutability": "view",
            "type": "function"
        },
        {
            "inputs": [],
            "name": "getMyTweets",
            "outputs": [
                {
                    "components": [
                        {
                            "internalType": "uint256",
                            "name": "tweetId",
                            "type": "uint256"
                        },
                        {
                            "internalType": "address",
                            "name": "username",
                            "type": "address"
                        },
                        {
                            "internalType": "string",
                            "name": "tweetText",
                            "type": "string"
                        },
                        {
                            "internalType": "bool",
                            "name": "isDeleted",
                            "type": "bool"
                        }
                    ],
                    "internalType": "struct TwitterContract.Tweet[]",
                    "name": "",
                    "type": "tuple[]"
                }
            ],
            "stateMutability": "view",
            "type": "function"
        }
    ],
    "bytecode": "0x608060405234801561001057600080fd5b50611297806100206000396000f3fe608060405234801561001057600080fd5b506004361061004c5760003560e01c80635325613514610051578063aefedbc21461006f578063e580339f1461008d578063f0312a37146100a9575b600080fd5b6100596100c5565b6040516100669190610bcb565b60405180910390f35b6100776103a7565b6040516100849190610bcb565b60405180910390f35b6100a760048036038101906100a29190610d62565b6106f4565b005b6100c360048036038101906100be9190610dea565b610880565b005b60606000808054905067ffffffffffffffff8111156100e7576100e6610c0b565b5b60405190808252806020026020018201604052801561012057816020015b61010d610961565b8152602001906001900390816101055790505b5090506000805b6000805490508110156102ed57600015156000828154811061014c5761014b610e2a565b5b906000526020600020906004020160030160009054906101000a900460ff161515036102da576000818154811061018657610185610e2a565b5b9060005260206000209060040201604051806080016040529081600082015481526020016001820160009054906101000a900473ffffffffffffffffffffffffffffffffffffffff1673ffffffffffffffffffffffffffffffffffffffff1673ffffffffffffffffffffffffffffffffffffffff16815260200160028201805461020f90610e88565b80601f016020809104026020016040519081016040528092919081815260200182805461023b90610e88565b80156102885780601f1061025d57610100808354040283529160200191610288565b820191906000526020600020905b81548152906001019060200180831161026b57829003601f168201915b505050505081526020016003820160009054906101000a900460ff1615151515815250508383815181106102bf576102be610e2a565b5b60200260200101819052506001826102d79190610ee8565b91505b80806102e590610f1c565b915050610127565b5060008167ffffffffffffffff81111561030a57610309610c0b565b5b60405190808252806020026020018201604052801561034357816020015b610330610961565b8152602001906001900390816103285790505b50905060005b8281101561039d5783818151811061036457610363610e2a565b5b602002602001015182828151811061037f5761037e610e2a565b5b6020026020010181905250808061039590610f1c565b915050610349565b5080935050505090565b60606000808054905067ffffffffffffffff8111156103c9576103c8610c0b565b5b60405190808252806020026020018201604052801561040257816020015b6103ef610961565b8152602001906001900390816103e75790505b5090506000805b60008054905081101561063a573373ffffffffffffffffffffffffffffffffffffffff166001600083815260200190815260200160002060009054906101000a900473ffffffffffffffffffffffffffffffffffffffff1673ffffffffffffffffffffffffffffffffffffffff161480156104ba5750600015156000828154811061049757610496610e2a565b5b906000526020600020906004020160030160009054906101000a900460ff161515145b1561062757600081815481106104d3576104d2610e2a565b5b9060005260206000209060040201604051806080016040529081600082015481526020016001820160009054906101000a900473ffffffffffffffffffffffffffffffffffffffff1673ffffffffffffffffffffffffffffffffffffffff1673ffffffffffffffffffffffffffffffffffffffff16815260200160028201805461055c90610e88565b80601f016020809104026020016040519081016040528092919081815260200182805461058890610e88565b80156105d55780601f106105aa576101008083540402835291602001916105d5565b820191906000526020600020905b8154815290600101906020018083116105b857829003601f168201915b505050505081526020016003820160009054906101000a900460ff16151515158152505083838151811061060c5761060b610e2a565b5b60200260200101819052506001826106249190610ee8565b91505b808061063290610f1c565b915050610409565b5060008167ffffffffffffffff81111561065757610656610c0b565b5b60405190808252806020026020018201604052801561069057816020015b61067d610961565b8152602001906001900390816106755790505b50905060005b828110156106ea578381815181106106b1576106b0610e2a565b5b60200260200101518282815181106106cc576106cb610e2a565b5b602002602001018190525080806106e290610f1c565b915050610696565b5080935050505090565b600080805490509050600060405180608001604052808381526020013373ffffffffffffffffffffffffffffffffffffffff168152602001858152602001841515815250905060008190806001815401808255809150506001900390600052602060002090600402016000909190919091506000820151816000015560208201518160010160006101000a81548173ffffffffffffffffffffffffffffffffffffffff021916908373ffffffffffffffffffffffffffffffffffffffff16021790555060408201518160020190816107cc9190611110565b5060608201518160030160006101000a81548160ff0219169083151502179055505050336001600084815260200190815260200160002060006101000a81548173ffffffffffffffffffffffffffffffffffffffff021916908373ffffffffffffffffffffffffffffffffffffffff1602179055507f8b2db9b424f26463510ef5b02c16f2465836b52081b51d2112ec76102053bdea3383604051610872929190611200565b60405180910390a150505050565b3373ffffffffffffffffffffffffffffffffffffffff166001600084815260200190815260200160002060009054906101000a900473ffffffffffffffffffffffffffffffffffffffff1673ffffffffffffffffffffffffffffffffffffffff160361095d5780600083815481106108fb576108fa610e2a565b5b906000526020600020906004020160030160006101000a81548160ff0219169083151502179055507f2430f837dd2fb40e08c064be9db3d0cf2a7a21f8fe716a2a41787dafc66a7e2a8282604051610954929190611238565b60405180910390a15b5050565b604051806080016040528060008152602001600073ffffffffffffffffffffffffffffffffffffffff168152602001606081526020016000151581525090565b600081519050919050565b600082825260208201905092915050565b6000819050602082019050919050565b6000819050919050565b6109e0816109cd565b82525050565b600073ffffffffffffffffffffffffffffffffffffffff82169050919050565b6000610a11826109e6565b9050919050565b610a2181610a06565b82525050565b600081519050919050565b600082825260208201905092915050565b60005b83811015610a61578082015181840152602081019050610a46565b60008484015250505050565b6000601f19601f8301169050919050565b6000610a8982610a27565b610a938185610a32565b9350610aa3818560208601610a43565b610aac81610a6d565b840191505092915050565b60008115159050919050565b610acc81610ab7565b82525050565b6000608083016000830151610aea60008601826109d7565b506020830151610afd6020860182610a18565b5060408301518482036040860152610b158282610a7e565b9150506060830151610b2a6060860182610ac3565b508091505092915050565b6000610b418383610ad2565b905092915050565b6000602082019050919050565b6000610b61826109a1565b610b6b81856109ac565b935083602082028501610b7d856109bd565b8060005b85811015610bb95784840389528151610b9a8582610b35565b9450610ba583610b49565b925060208a01995050600181019050610b81565b50829750879550505050505092915050565b60006020820190508181036000830152610be58184610b56565b905092915050565b6000604051905090565b600080fd5b600080fd5b600080fd5b600080fd5b7f4e487b7100000000000000000000000000000000000000000000000000000000600052604160045260246000fd5b610c4382610a6d565b810181811067ffffffffffffffff82111715610c6257610c61610c0b565b5b80604052505050565b6000610c75610bed565b9050610c818282610c3a565b919050565b600067ffffffffffffffff821115610ca157610ca0610c0b565b5b610caa82610a6d565b9050602081019050919050565b82818337600083830152505050565b6000610cd9610cd484610c86565b610c6b565b905082815260208101848484011115610cf557610cf4610c06565b5b610d00848285610cb7565b509392505050565b600082601f830112610d1d57610d1c610c01565b5b8135610d2d848260208601610cc6565b91505092915050565b610d3f81610ab7565b8114610d4a57600080fd5b50565b600081359050610d5c81610d36565b92915050565b60008060408385031215610d7957610d78610bf7565b5b600083013567ffffffffffffffff811115610d9757610d96610bfc565b5b610da385828601610d08565b9250506020610db485828601610d4d565b9150509250929050565b610dc7816109cd565b8114610dd257600080fd5b50565b600081359050610de481610dbe565b92915050565b60008060408385031215610e0157610e00610bf7565b5b6000610e0f85828601610dd5565b9250506020610e2085828601610d4d565b9150509250929050565b7f4e487b7100000000000000000000000000000000000000000000000000000000600052603260045260246000fd5b7f4e487b7100000000000000000000000000000000000000000000000000000000600052602260045260246000fd5b60006002820490506001821680610ea057607f821691505b602082108103610eb357610eb2610e59565b5b50919050565b7f4e487b7100000000000000000000000000000000000000000000000000000000600052601160045260246000fd5b6000610ef3826109cd565b9150610efe836109cd565b9250828201905080821115610f1657610f15610eb9565b5b92915050565b6000610f27826109cd565b91507fffffffffffffffffffffffffffffffffffffffffffffffffffffffffffffffff8203610f5957610f58610eb9565b5b600182019050919050565b60008190508160005260206000209050919050565b60006020601f8301049050919050565b600082821b905092915050565b600060088302610fc67fffffffffffffffffffffffffffffffffffffffffffffffffffffffffffffffff82610f89565b610fd08683610f89565b95508019841693508086168417925050509392505050565b6000819050919050565b600061100d611008611003846109cd565b610fe8565b6109cd565b9050919050565b6000819050919050565b61102783610ff2565b61103b61103382611014565b848454610f96565b825550505050565b600090565b611050611043565b61105b81848461101e565b505050565b5b8181101561107f57611074600082611048565b600181019050611061565b5050565b601f8211156110c45761109581610f64565b61109e84610f79565b810160208510156110ad578190505b6110c16110b985610f79565b830182611060565b50505b505050565b600082821c905092915050565b60006110e7600019846008026110c9565b1980831691505092915050565b600061110083836110d6565b9150826002028217905092915050565b61111982610a27565b67ffffffffffffffff81111561113257611131610c0b565b5b61113c8254610e88565b611147828285611083565b600060209050601f83116001811461117a5760008415611168578287015190505b61117285826110f4565b8655506111da565b601f19841661118886610f64565b60005b828110156111b05784890151825560018201915060208501945060208101905061118b565b868310156111cd57848901516111c9601f8916826110d6565b8355505b6001600288020188555050505b505050505050565b6111eb81610a06565b82525050565b6111fa816109cd565b82525050565b600060408201905061121560008301856111e2565b61122260208301846111f1565b9392505050565b61123281610ab7565b82525050565b600060408201905061124d60008301856111f1565b61125a6020830184611229565b939250505056fea26469706673582212202e13c4411cf271f26f96b8ba8bfd1567bac6cf349bee5054c08578454c018a9564736f6c63430008110033",
    "linkReferences": {},
    "deployedLinkReferences": {}
}